{
  "_format": "hh3-artifact-1",
  "contractName": "EIP7702AuthorizedCode",
  "sourceName": "contracts/EIP7702AuthorizedCode.sol",
  "abi": [
    {
      "anonymous": false,
      "inputs": [
        {
          "indexed": true,
          "internalType": "address",
          "name": "manager",
          "type": "address"
        }
      ],
      "name": "DelegationManagerSet",
      "type": "event"
    },
    {
      "anonymous": false,
      "inputs": [
        {
          "indexed": true,
          "internalType": "address",
          "name": "owner",
          "type": "address"
        }
      ],
      "name": "OwnerSet",
      "type": "event"
    },
    {
      "stateMutability": "payable",
      "type": "fallback"
    },
    {
      "inputs": [
        {
          "internalType": "address",
          "name": "token",
          "type": "address"
        },
        {
          "internalType": "address",
          "name": "spender",
          "type": "address"
        },
        {
          "internalType": "uint256",
          "name": "amount",
          "type": "uint256"
        }
      ],
      "name": "approveERC20",
      "outputs": [],
      "stateMutability": "nonpayable",
      "type": "function"
    },
    {
      "inputs": [
        {
          "internalType": "address[]",
          "name": "targets",
          "type": "address[]"
        },
        {
          "internalType": "bytes[]",
          "name": "datas",
          "type": "bytes[]"
        },
        {
          "internalType": "uint256[]",
          "name": "values",
          "type": "uint256[]"
        }
      ],
      "name": "batchExecuteDelegatedCalls",
      "outputs": [
        {
          "internalType": "bool[]",
          "name": "successes",
          "type": "bool[]"
        },
        {
          "internalType": "bytes[]",
          "name": "returnDatas",
          "type": "bytes[]"
        }
      ],
      "stateMutability": "nonpayable",
      "type": "function"
    },
    {
      "inputs": [
        {
          "internalType": "address",
          "name": "delegationManager",
          "type": "address"
        },
        {
          "internalType": "uint256[]",
          "name": "subscriptionIds",
          "type": "uint256[]"
        }
      ],
      "name": "batchProcessSubscriptionPayments",
      "outputs": [],
      "stateMutability": "nonpayable",
      "type": "function"
    },
    {
      "inputs": [
        {
          "internalType": "address",
          "name": "delegationManager",
          "type": "address"
        },
        {
          "internalType": "uint256",
          "name": "subscriptionId",
          "type": "uint256"
        }
      ],
      "name": "cancelSubscription",
      "outputs": [],
      "stateMutability": "nonpayable",
      "type": "function"
    },
    {
      "inputs": [
        {
          "internalType": "address",
          "name": "delegationManager",
          "type": "address"
        },
        {
          "internalType": "address",
          "name": "recipient",
          "type": "address"
        },
        {
          "internalType": "address",
          "name": "token",
          "type": "address"
        },
        {
          "internalType": "uint256",
          "name": "amountPerInterval",
          "type": "uint256"
        },
        {
          "internalType": "uint256",
          "name": "totalAmount",
          "type": "uint256"
        },
        {
          "internalType": "uint256",
          "name": "startTime",
          "type": "uint256"
        },
        {
          "internalType": "uint256",
          "name": "interval",
          "type": "uint256"
        },
        {
          "internalType": "uint256",
          "name": "periods",
          "type": "uint256"
        }
      ],
      "name": "createSubscription",
      "outputs": [],
      "stateMutability": "nonpayable",
      "type": "function"
    },
    {
      "inputs": [
        {
          "internalType": "address",
          "name": "target",
          "type": "address"
        },
        {
          "internalType": "bytes",
          "name": "data",
          "type": "bytes"
        },
        {
          "internalType": "uint256",
          "name": "value",
          "type": "uint256"
        }
      ],
      "name": "executeDelegatedCall",
      "outputs": [
        {
          "internalType": "bool",
          "name": "success",
          "type": "bool"
        },
        {
          "internalType": "bytes",
          "name": "returnData",
          "type": "bytes"
        }
      ],
      "stateMutability": "nonpayable",
      "type": "function"
    },
    {
      "inputs": [],
      "name": "getDelegationManager",
      "outputs": [
        {
          "internalType": "address",
          "name": "",
          "type": "address"
        }
      ],
      "stateMutability": "view",
      "type": "function"
    },
    {
      "inputs": [],
      "name": "getOwner",
      "outputs": [
        {
          "internalType": "address",
          "name": "",
          "type": "address"
        }
      ],
      "stateMutability": "view",
      "type": "function"
    },
    {
      "inputs": [
        {
          "internalType": "address",
          "name": "delegationManager",
          "type": "address"
        },
        {
          "internalType": "address",
          "name": "owner",
          "type": "address"
        }
      ],
      "name": "initialize",
      "outputs": [],
      "stateMutability": "nonpayable",
      "type": "function"
    },
    {
      "inputs": [
        {
          "internalType": "address",
          "name": "delegationManager",
          "type": "address"
        },
        {
          "internalType": "uint256",
          "name": "subscriptionId",
          "type": "uint256"
        }
      ],
      "name": "pauseSubscription",
      "outputs": [],
      "stateMutability": "nonpayable",
      "type": "function"
    },
    {
      "inputs": [
        {
          "internalType": "address",
          "name": "delegationManager",
          "type": "address"
        },
        {
          "internalType": "uint256",
          "name": "subscriptionId",
          "type": "uint256"
        }
      ],
      "name": "processSubscriptionPayment",
      "outputs": [],
      "stateMutability": "nonpayable",
      "type": "function"
    },
    {
      "inputs": [
        {
          "internalType": "address",
          "name": "delegationManager",
          "type": "address"
        },
        {
          "internalType": "uint256",
          "name": "subscriptionId",
          "type": "uint256"
        }
      ],
      "name": "resumeSubscription",
      "outputs": [],
      "stateMutability": "nonpayable",
      "type": "function"
    },
    {
      "inputs": [
        {
          "internalType": "bytes4",
          "name": "interfaceId",
          "type": "bytes4"
        }
      ],
      "name": "supportsInterface",
      "outputs": [
        {
          "internalType": "bool",
          "name": "",
          "type": "bool"
        }
      ],
      "stateMutability": "pure",
      "type": "function"
    },
    {
      "inputs": [
        {
          "internalType": "address",
          "name": "token",
          "type": "address"
        },
        {
          "internalType": "address",
          "name": "to",
          "type": "address"
        },
        {
          "internalType": "uint256",
          "name": "amount",
          "type": "uint256"
        }
      ],
      "name": "transferERC20",
      "outputs": [],
      "stateMutability": "nonpayable",
      "type": "function"
    },
    {
      "inputs": [
        {
          "internalType": "address payable",
          "name": "to",
          "type": "address"
        },
        {
          "internalType": "uint256",
          "name": "amount",
          "type": "uint256"
        }
      ],
      "name": "transferETH",
      "outputs": [],
      "stateMutability": "nonpayable",
      "type": "function"
    },
    {
      "stateMutability": "payable",
      "type": "receive"
    }
  ],
  "bytecode": "0x60808060405234610016576113e9908161001b8239f35b5f80fdfe608080604052600436101561001a575b50361561001857005b005b5f3560e01c90816301ffc9a71461101957508063485cc95514610ee25780634c91826314610e2157806371592bd214610b42578063774a4579146108795780637b1a4909146107d357806382cbb4e114610713578063893d20e8146106df5780639c89c0ac1461060f5780639db5dbe414610539578063a1a9eb4a1461041f578063a8e5e4aa146102db578063b24e5a3a14610294578063d7058c3d146101995763e9130e41146100cb575f61000f565b34610195576040366003190112610195575f806100e661104f565b61011460018060a01b0361010b815f805160206113948339815191525416331461116b565b8216151561111f565b60405182602082019163011d2c2760e11b835260243560248201526024815261013c816111a8565b51925af16101486111fa565b501561015057005b60405162461bcd60e51b815260206004820152601a60248201527f537562736372697074696f6e20726573756d65206661696c65640000000000006044820152606490fd5b5f80fd5b34610195576060366003190112610195576101b261104f565b60243567ffffffffffffffff918282116101955736602383011215610195578160040135928311610195573660248484010111610195575f80516020611394833981519152546001600160a01b039061020e908216331461116b565b81161561025e5760245f939283859460405193849301833781018481520391604435905af161023b6111fa565b9061025a604051928392151583526040602084015260408301906110ac565b0390f35b60405162461bcd60e51b815260206004820152600e60248201526d125b9d985b1a59081d185c99d95d60921b6044820152606490fd5b34610195575f366003190112610195577f4804f7108fa141c40ee1081ed3a98b40bbdcace1bc6437d3d2cb745af46b7a54546040516001600160a01b039091168152602090f35b34610195576102e9366110ea565b909160018060a01b0361030d815f805160206113948339815191525416331461116b565b61031a8183161515611357565b8316156103e85760405163095ea7b360e01b602082019081526001600160a01b03909416602482015260448101929092525f928392839061036881606481015b03601f1981018352826111d8565b51925af16103746111fa565b816103b9575b501561038257005b60405162461bcd60e51b815260206004820152600f60248201526e105c1c1c9bdd985b0819985a5b1959608a1b6044820152606490fd5b80518015925082156103ce575b50508161037a565b6103e19250602080918301019101611279565b81806103c6565b60405162461bcd60e51b815260206004820152600f60248201526e24b73b30b634b21039b832b73232b960891b6044820152606490fd5b346101955760403660031901126101955761043861104f565b60243567ffffffffffffffff81116101955761045890369060040161107b565b909161047f60018060a01b0361010b815f805160206113948339815191525416331461116b565b604051638f0af79f60e01b602080830191825260248301526044820184905290936001600160fb1b03841161019557846104d460645f97889794889560051b80918484013781010360448101845201826111d8565b51925af16104e06111fa565b50156104e857005b60405162461bcd60e51b8152602060048201526024808201527f426174636820737562736372697074696f6e2070726f63657373696e672066616044820152631a5b195960e21b6064820152608490fd5b34610195576100185f8061035a6105c882610553366110ea565b61059460018060a09895989794971b0361057e815f805160206113948339815191525416331461116b565b61058b8189161515611357565b86161515611239565b60405163a9059cbb60e01b602082019081526001600160a01b03909616602482015260448101919091529182906064820190565b51925af16105d46111fa565b816105e0575b50611319565b80518015925082156105f5575b5050826105da565b6106089250602080918301019101611279565b82806105ed565b34610195576040366003190112610195575f8061062a61104f565b61064f60018060a01b0361010b815f805160206113948339815191525416331461116b565b604051826020820191634c3ae34d60e11b8352602435602482015260248152610677816111a8565b51925af16106836111fa565b501561068b57005b60405162461bcd60e51b815260206004820152602660248201527f537562736372697074696f6e207061796d656e742070726f63657373696e672060448201526519985a5b195960d21b6064820152608490fd5b34610195575f366003190112610195575f80516020611394833981519152546040516001600160a01b039091168152602090f35b34610195576040366003190112610195575f8061072e61104f565b61075360018060a01b0361010b815f805160206113948339815191525416331461116b565b604051826020820191632123508360e01b835260243560248201526024815261077b816111a8565b51925af16107876111fa565b501561078f57005b606460405162461bcd60e51b815260206004820152602060248201527f537562736372697074696f6e2063616e63656c6c6174696f6e206661696c65646044820152fd5b34610195576040366003190112610195576004356001600160a01b038181169182900361019557610818602435915f805160206113948339815191525416331461116b565b610823821515611239565b80471061083d575f80808093610018955af16105da6111fa565b60405162461bcd60e51b8152602060048201526014602482015273496e73756666696369656e742062616c616e636560601b6044820152606490fd5b346101955760603660031901126101955760043567ffffffffffffffff8111610195576108aa90369060040161107b565b9060243567ffffffffffffffff8111610195576108cb90369060040161107b565b909160443567ffffffffffffffff8111610195576108ed90369060040161107b565b9361090f60018060a01b035f805160206113948339815191525416331461116b565b83861480610b39575b15610afc576109288695966112dd565b9561093660405197886111d8565b858752610942866112dd565b601f1901366020890137610955866112dd565b9561096360405197886111d8565b80875261096f816112dd565b5f5b601f1982018110610ae95750505f5b818110610a2c578789604051918291604083016040845281518091526020606085019201905f5b818110610a11575050508281036020840152815180825260208201916020808360051b8301019401925f915b8383106109e05786860387f35b9193955091936020806109ff600193601f1986820301875289516110ac565b970193019301909286959492936109d3565b825115158452869550602093840193909201916001016109a7565b610a378183886112f5565b35906001600160a01b038216820361019557610a548185886112f5565b3588821015610ad5578160051b860135601e19873603018112156101955786019283359367ffffffffffffffff85116101955760200190843603821361019557845f9384936001976040519384928337810185815203925af1610ab56111fa565b610abf838c611305565b52610aca828c611305565b901515905201610980565b634e487b7160e01b5f52603260045260245ffd5b60606020828b0181019190915201610971565b60405162461bcd60e51b8152602060048201526015602482015274082e4e4c2f240d8cadccee8d040dad2e6dac2e8c6d605b1b6044820152606490fd5b50848414610918565b346101955761010036600319011261019557610b5c61104f565b610b64611065565b604435916001600160a01b0380841692909190838503610195576064356084359060a4359560c43590610bbc60e43597610baf815f805160206113948339815191525416331461116b565b61058b818916151561111f565b868302838104881484151715610e0d578403610dd057610c9c57824710610c5757604051633da411f560e21b602082019081526001600160a01b03958616602483015298909416604485015260648401919091526084830182905260a483019590955260c482019490945260e4810192909252610018935f938493610c4581610104810161035a565b51925af1610c516111fa565b50611291565b60405162461bcd60e51b815260206004820152601860248201527f496e73756666696369656e74204554482062616c616e636500000000000000006044820152606490fd5b60405163095ea7b360e01b602082019081526001600160a01b03871660248301526044808301869052825293979193601f19915f918291610cde6064826111d8565b5190828d5af1610cec6111fa565b81610da1575b5015610d6457604051633da411f560e21b602082019081526001600160a01b0396871660248301529990951660448601526064850192909252608484019690965260a483019590955260c482015260e48101929092526101049283018252610018935f9384938491610c4590826111d8565b60405162461bcd60e51b8152602060048201526015602482015274151bdad95b88185c1c1c9bdd985b0819985a5b1959605a1b6044820152606490fd5b8051801592508215610db6575b50508a610cf2565b610dc99250602080918301019101611279565b8a80610dae565b60405162461bcd60e51b81526020600482015260156024820152740a8dee8c2d840c2dadeeadce840dad2e6dac2e8c6d605b1b6044820152606490fd5b634e487b7160e01b5f52601160045260245ffd5b34610195576040366003190112610195575f80610e3c61104f565b610e6160018060a01b0361010b815f805160206113948339815191525416331461116b565b6040518260208201916320f91f8560e11b8352602435602482015260248152610e89816111a8565b51925af1610e956111fa565b5015610e9d57005b60405162461bcd60e51b815260206004820152601960248201527f537562736372697074696f6e207061757365206661696c6564000000000000006044820152606490fd5b3461019557604036600319011261019557610efb61104f565b610f03611065565b7f4804f7108fa141c40ee1081ed3a98b40bbdcace1bc6437d3d2cb745af46b7a54805490926001600160a01b03918216610fde5781811691610f4683151561111f565b8316938415610fa957557f2296e6d8aebb5c81250fd381a114c2ec346fc44bc4582ba95cdcac0f09df6cd95f80a25f80516020611394833981519152557f50146d0e3c60aa1d17a70635b05494f864e86144a2201275021014fbf08bafe25f80a2005b60405162461bcd60e51b815260206004820152600d60248201526c24b73b30b634b21037bbb732b960991b6044820152606490fd5b60405162461bcd60e51b8152602060048201526013602482015272105b1c9958591e481a5b9a5d1a585b1a5e9959606a1b6044820152606490fd5b34610195576020366003190112610195576004359063ffffffff60e01b8216809203610195576020916301ffc9a760e01b148152f35b600435906001600160a01b038216820361019557565b602435906001600160a01b038216820361019557565b9181601f840112156101955782359167ffffffffffffffff8311610195576020808501948460051b01011161019557565b91908251928382525f5b8481106110d6575050825f602080949584010152601f8019910116010190565b6020818301810151848301820152016110b6565b6060906003190112610195576001600160a01b0390600435828116810361019557916024359081168103610195579060443590565b1561112657565b60405162461bcd60e51b815260206004820152601a60248201527f496e76616c69642064656c65676174696f6e206d616e616765720000000000006044820152606490fd5b1561117257565b60405162461bcd60e51b815260206004820152600e60248201526d139bdd08185d5d1a1bdc9a5e995960921b6044820152606490fd5b6060810190811067ffffffffffffffff8211176111c457604052565b634e487b7160e01b5f52604160045260245ffd5b90601f8019910116810190811067ffffffffffffffff8211176111c457604052565b3d15611234573d9067ffffffffffffffff82116111c45760405191611229601f8201601f1916602001846111d8565b82523d5f602084013e565b606090565b1561124057565b60405162461bcd60e51b8152602060048201526011602482015270125b9d985b1a59081c9958da5c1a595b9d607a1b6044820152606490fd5b90816020910312610195575180151581036101955790565b1561129857565b60405162461bcd60e51b815260206004820152601c60248201527f537562736372697074696f6e206372656174696f6e206661696c6564000000006044820152606490fd5b67ffffffffffffffff81116111c45760051b60200190565b9190811015610ad55760051b0190565b8051821015610ad55760209160051b010190565b1561132057565b60405162461bcd60e51b815260206004820152600f60248201526e151c985b9cd9995c8819985a5b1959608a1b6044820152606490fd5b1561135e57565b60405162461bcd60e51b815260206004820152600d60248201526c24b73b30b634b2103a37b5b2b760991b6044820152606490fdfea3eca5900629a808e0850e981a471fe387103da237d4ff9a21cfade566b79093a2646970667358221220898a451dd7facdc55190bdd0b08a954df2cf48f92b6cec7dccb79766f51e220a64736f6c63430008180033",
  "linkReferences": {},
  "deployedLinkReferences": {},
  "immutableReferences": {},
  "inputSourceName": "project/contracts/EIP7702AuthorizedCode.sol",
  "buildInfoId": "solc-0_8_24-ce43474488cc5cc4460a60e66766d988a512766b"
}