{
  "_format": "hh3-artifact-1",
  "contractName": "MockERC20",
  "sourceName": "contracts/MockERC20.sol",
  "abi": [
    {
      "inputs": [
        {
          "internalType": "string",
          "name": "name",
          "type": "string"
        },
        {
          "internalType": "string",
          "name": "symbol",
          "type": "string"
        },
        {
          "internalType": "uint8",
          "name": "decimals_",
          "type": "uint8"
        },
        {
          "internalType": "uint256",
          "name": "initialSupply",
          "type": "uint256"
        }
      ],
      "stateMutability": "nonpayable",
      "type": "constructor"
    },
    {
      "inputs": [
        {
          "internalType": "address",
          "name": "spender",
          "type": "address"
        },
        {
          "internalType": "uint256",
          "name": "allowance",
          "type": "uint256"
        },
        {
          "internalType": "uint256",
          "name": "needed",
          "type": "uint256"
        }
      ],
      "name": "ERC20InsufficientAllowance",
      "type": "error"
    },
    {
      "inputs": [
        {
          "internalType": "address",
          "name": "sender",
          "type": "address"
        },
        {
          "internalType": "uint256",
          "name": "balance",
          "type": "uint256"
        },
        {
          "internalType": "uint256",
          "name": "needed",
          "type": "uint256"
        }
      ],
      "name": "ERC20InsufficientBalance",
      "type": "error"
    },
    {
      "inputs": [
        {
          "internalType": "address",
          "name": "approver",
          "type": "address"
        }
      ],
      "name": "ERC20InvalidApprover",
      "type": "error"
    },
    {
      "inputs": [
        {
          "internalType": "address",
          "name": "receiver",
          "type": "address"
        }
      ],
      "name": "ERC20InvalidReceiver",
      "type": "error"
    },
    {
      "inputs": [
        {
          "internalType": "address",
          "name": "sender",
          "type": "address"
        }
      ],
      "name": "ERC20InvalidSender",
      "type": "error"
    },
    {
      "inputs": [
        {
          "internalType": "address",
          "name": "spender",
          "type": "address"
        }
      ],
      "name": "ERC20InvalidSpender",
      "type": "error"
    },
    {
      "inputs": [
        {
          "internalType": "address",
          "name": "owner",
          "type": "address"
        }
      ],
      "name": "OwnableInvalidOwner",
      "type": "error"
    },
    {
      "inputs": [
        {
          "internalType": "address",
          "name": "account",
          "type": "address"
        }
      ],
      "name": "OwnableUnauthorizedAccount",
      "type": "error"
    },
    {
      "anonymous": false,
      "inputs": [
        {
          "indexed": true,
          "internalType": "address",
          "name": "owner",
          "type": "address"
        },
        {
          "indexed": true,
          "internalType": "address",
          "name": "spender",
          "type": "address"
        },
        {
          "indexed": false,
          "internalType": "uint256",
          "name": "value",
          "type": "uint256"
        }
      ],
      "name": "Approval",
      "type": "event"
    },
    {
      "anonymous": false,
      "inputs": [
        {
          "indexed": true,
          "internalType": "address",
          "name": "previousOwner",
          "type": "address"
        },
        {
          "indexed": true,
          "internalType": "address",
          "name": "newOwner",
          "type": "address"
        }
      ],
      "name": "OwnershipTransferred",
      "type": "event"
    },
    {
      "anonymous": false,
      "inputs": [
        {
          "indexed": true,
          "internalType": "address",
          "name": "from",
          "type": "address"
        },
        {
          "indexed": true,
          "internalType": "address",
          "name": "to",
          "type": "address"
        },
        {
          "indexed": false,
          "internalType": "uint256",
          "name": "value",
          "type": "uint256"
        }
      ],
      "name": "Transfer",
      "type": "event"
    },
    {
      "inputs": [
        {
          "internalType": "address",
          "name": "owner",
          "type": "address"
        },
        {
          "internalType": "address",
          "name": "spender",
          "type": "address"
        }
      ],
      "name": "allowance",
      "outputs": [
        {
          "internalType": "uint256",
          "name": "",
          "type": "uint256"
        }
      ],
      "stateMutability": "view",
      "type": "function"
    },
    {
      "inputs": [
        {
          "internalType": "address",
          "name": "spender",
          "type": "address"
        },
        {
          "internalType": "uint256",
          "name": "value",
          "type": "uint256"
        }
      ],
      "name": "approve",
      "outputs": [
        {
          "internalType": "bool",
          "name": "",
          "type": "bool"
        }
      ],
      "stateMutability": "nonpayable",
      "type": "function"
    },
    {
      "inputs": [
        {
          "internalType": "address",
          "name": "account",
          "type": "address"
        }
      ],
      "name": "balanceOf",
      "outputs": [
        {
          "internalType": "uint256",
          "name": "",
          "type": "uint256"
        }
      ],
      "stateMutability": "view",
      "type": "function"
    },
    {
      "inputs": [
        {
          "internalType": "uint256",
          "name": "amount",
          "type": "uint256"
        }
      ],
      "name": "burn",
      "outputs": [],
      "stateMutability": "nonpayable",
      "type": "function"
    },
    {
      "inputs": [
        {
          "internalType": "address",
          "name": "from",
          "type": "address"
        },
        {
          "internalType": "uint256",
          "name": "amount",
          "type": "uint256"
        }
      ],
      "name": "burnFrom",
      "outputs": [],
      "stateMutability": "nonpayable",
      "type": "function"
    },
    {
      "inputs": [],
      "name": "decimals",
      "outputs": [
        {
          "internalType": "uint8",
          "name": "",
          "type": "uint8"
        }
      ],
      "stateMutability": "view",
      "type": "function"
    },
    {
      "inputs": [
        {
          "internalType": "uint256",
          "name": "amount",
          "type": "uint256"
        }
      ],
      "name": "faucet",
      "outputs": [],
      "stateMutability": "nonpayable",
      "type": "function"
    },
    {
      "inputs": [
        {
          "internalType": "address",
          "name": "to",
          "type": "address"
        },
        {
          "internalType": "uint256",
          "name": "amount",
          "type": "uint256"
        }
      ],
      "name": "mint",
      "outputs": [],
      "stateMutability": "nonpayable",
      "type": "function"
    },
    {
      "inputs": [],
      "name": "name",
      "outputs": [
        {
          "internalType": "string",
          "name": "",
          "type": "string"
        }
      ],
      "stateMutability": "view",
      "type": "function"
    },
    {
      "inputs": [],
      "name": "owner",
      "outputs": [
        {
          "internalType": "address",
          "name": "",
          "type": "address"
        }
      ],
      "stateMutability": "view",
      "type": "function"
    },
    {
      "inputs": [],
      "name": "renounceOwnership",
      "outputs": [],
      "stateMutability": "nonpayable",
      "type": "function"
    },
    {
      "inputs": [],
      "name": "symbol",
      "outputs": [
        {
          "internalType": "string",
          "name": "",
          "type": "string"
        }
      ],
      "stateMutability": "view",
      "type": "function"
    },
    {
      "inputs": [],
      "name": "totalSupply",
      "outputs": [
        {
          "internalType": "uint256",
          "name": "",
          "type": "uint256"
        }
      ],
      "stateMutability": "view",
      "type": "function"
    },
    {
      "inputs": [
        {
          "internalType": "address",
          "name": "to",
          "type": "address"
        },
        {
          "internalType": "uint256",
          "name": "value",
          "type": "uint256"
        }
      ],
      "name": "transfer",
      "outputs": [
        {
          "internalType": "bool",
          "name": "",
          "type": "bool"
        }
      ],
      "stateMutability": "nonpayable",
      "type": "function"
    },
    {
      "inputs": [
        {
          "internalType": "address",
          "name": "from",
          "type": "address"
        },
        {
          "internalType": "address",
          "name": "to",
          "type": "address"
        },
        {
          "internalType": "uint256",
          "name": "value",
          "type": "uint256"
        }
      ],
      "name": "transferFrom",
      "outputs": [
        {
          "internalType": "bool",
          "name": "",
          "type": "bool"
        }
      ],
      "stateMutability": "nonpayable",
      "type": "function"
    },
    {
      "inputs": [
        {
          "internalType": "address",
          "name": "newOwner",
          "type": "address"
        }
      ],
      "name": "transferOwnership",
      "outputs": [],
      "stateMutability": "nonpayable",
      "type": "function"
    }
  ],
  "bytecode": "0x60406080815234620003ee5762000f00803803806200001e81620003f2565b9283398101608082820312620003ee5781516001600160401b039290838111620003ee57826200005091830162000418565b906020928382015190858211620003ee576200006e91830162000418565b91858201519160ff83168303620003ee5760600151948151818111620002f9576003908154906001948583811c93168015620003e3575b89841014620003cf578190601f938481116200037c575b50899084831160011462000319575f926200030d575b50505f1982851b1c191690851b1782555b8551928311620002f95760049586548581811c91168015620002ee575b89821014620002db5782811162000293575b50879184116001146200022c579383949184925f9562000220575b50501b925f19911b1c19161782555b33156200020a5760055490336001600160a01b0383167f8be0079c531659141344cd1fd0a4f28419497f9722a3daafe3b4186f6b6457e05f80a36001600160a81b03199091163360ff60a01b19161760a09190911b60ff60a01b161760055560025483810191908210620001f757505f917fddf252ad1be2c89b69c2b068fc378daa952ba7f163c4a11628f55a4df523b3ef9160025533835282815284832084815401905584519384523393a351610a779081620004898239f35b601190634e487b7160e01b5f525260245ffd5b8451631e4fbdf760e01b81525f81840152602490fd5b015193505f806200012d565b9190601f19841692875f5284895f20945f5b8b898383106200027b575050501062000261575b50505050811b0182556200013c565b01519060f8845f19921b161c191690555f80808062000252565b8686015189559097019694850194889350016200023e565b875f52885f208380870160051c8201928b8810620002d1575b0160051c019086905b828110620002c557505062000112565b5f8155018690620002b5565b92508192620002ac565b602288634e487b7160e01b5f525260245ffd5b90607f169062000100565b634e487b7160e01b5f52604160045260245ffd5b015190505f80620000d2565b90879350601f19831691865f528b5f20925f5b8d8282106200036557505084116200034d575b505050811b018255620000e3565b01515f1983871b60f8161c191690555f80806200033f565b8385015186558b979095019493840193016200032c565b909150845f52895f208480850160051c8201928c8610620003c5575b918991869594930160051c01915b828110620003b6575050620000bc565b5f8155859450899101620003a6565b9250819262000398565b634e487b7160e01b5f52602260045260245ffd5b92607f1692620000a5565b5f80fd5b6040519190601f01601f191682016001600160401b03811183821017620002f957604052565b919080601f84011215620003ee5782516001600160401b038111620002f9576020906200044e601f8201601f19168301620003f2565b92818452828287010111620003ee575f5b818110620004745750825f9394955001015290565b85810183015184820184015282016200045f56fe608060409080825260049081361015610016575f80fd5b5f3560e01c90816306fdde03146105f257508063095ea7b31461054957806318160ddd1461052b57806323b872dd146104ef578063313ce567146104cb57806340c10f191461049f57806342966c681461048257806357915897146103e457806370a08231146103ae578063715018a61461035357806379cc6790146103225780638da5cb5b146102fa57806395d89b41146101da578063a9059cbb146101aa578063dd62ed3e146101615763f2fde38b146100d0575f80fd5b3461015d57602036600319011261015d576100e961072f565b906100f2610902565b6001600160a01b03918216928315610147575050600554826bffffffffffffffffffffffff60a01b821617600555167f8be0079c531659141344cd1fd0a4f28419497f9722a3daafe3b4186f6b6457e05f80a3005b905f6024925191631e4fbdf760e01b8352820152fd5b5f80fd5b823461015d578060031936011261015d5760209061017d61072f565b610185610745565b9060018060a01b038091165f5260018452825f2091165f528252805f20549051908152f35b823461015d578060031936011261015d576020906101d36101c961072f565b6024359033610828565b5160018152f35b50903461015d575f36600319011261015d578051905f835460018160011c90600183169283156102f0575b60209384841081146102dd578388529081156102c1575060011461026d575b505050829003601f01601f191682019267ffffffffffffffff84118385101761025a57508291826102569252826106e8565b0390f35b604190634e487b7160e01b5f525260245ffd5b5f878152929350837f8a35acfbc15ff81a39ae7d344fd709f28e8600b4aa8c65c6b64bfe7fe36bd19b5b8385106102ad57505050508301015f8080610224565b805488860183015293019284908201610297565b60ff1916878501525050151560051b84010190505f8080610224565b602289634e487b7160e01b5f525260245ffd5b91607f1691610205565b823461015d575f36600319011261015d5760055490516001600160a01b039091168152602090f35b823461015d5736600319011261015d5761035161033d61072f565b6024359061034c82338361075b565b6109a2565b005b3461015d575f36600319011261015d5761036b610902565b600580546001600160a01b031981169091555f906001600160a01b03167f8be0079c531659141344cd1fd0a4f28419497f9722a3daafe3b4186f6b6457e08280a3005b823461015d57602036600319011261015d576020906001600160a01b036103d361072f565b165f525f8252805f20549051908152f35b503461015d57602036600319011261015d5780359160ff60055460a01c16604d811161046f57600a0a6103e8908082029182040361046f57831161042c57610351833361092e565b906020606492519162461bcd60e51b8352820152601b60248201527f416d6f756e74206578636565647320666175636574206c696d697400000000006044820152fd5b601183634e487b7160e01b5f525260245ffd5b503461015d57602036600319011261015d576103519035336109a2565b823461015d5736600319011261015d576103516104ba61072f565b6104c2610902565b6024359061092e565b823461015d575f36600319011261015d5760209060ff60055460a01c169051908152f35b823461015d57606036600319011261015d576020906101d361050f61072f565b610517610745565b6044359161052683338361075b565b610828565b823461015d575f36600319011261015d576020906002549051908152f35b50903461015d578060031936011261015d5761056361072f565b6024359033156105dc576001600160a01b03169081156105c65760209350335f5260018452825f20825f52845280835f205582519081527f8c5be1e5ebec7d5bd14f71427d1e84f3dd0314c0f7b2291e5b200ac8c7c3b925843392a35160018152f35b8251634a1406b160e11b81525f81860152602490fd5b825163e602df0560e01b81525f81860152602490fd5b9050823461015d575f36600319011261015d575f60035460018160011c90600183169283156106de575b60209384841081146102dd578388529081156106c2575060011461066c57505050829003601f01601f191682019267ffffffffffffffff84118385101761025a57508291826102569252826106e8565b60035f908152929350837fc2575a0e9e593c00f959f8c92f12db2869c3395a3b0502d05e2516446f71f85b5b8385106106ae5750505050830101848080610224565b805488860183015293019284908201610698565b60ff1916878501525050151560051b8401019050848080610224565b91607f169161061c565b602080825282518183018190529093925f5b82811061071b57505060409293505f838284010152601f8019910116010190565b8181018601518482016040015285016106fa565b600435906001600160a01b038216820361015d57565b602435906001600160a01b038216820361015d57565b919060018060a01b0380931692835f526001602052604093845f2091831691825f52602052845f2054925f198410610796575b505050505050565b8484106107f8575080156107e15781156107ca575f526001602052835f20905f5260205203905f20555f808080808061078e565b8451634a1406b160e11b81525f6004820152602490fd5b845163e602df0560e01b81525f6004820152602490fd5b8551637dc7a0d960e11b81526001600160a01b039190911660048201526024810184905260448101859052606490fd5b916001600160a01b038084169283156108ea57169283156108d257825f525f60205260405f2054908282106108a05750817fddf252ad1be2c89b69c2b068fc378daa952ba7f163c4a11628f55a4df523b3ef92602092855f525f84520360405f2055845f5260405f20818154019055604051908152a3565b60405163391434e360e21b81526001600160a01b03919091166004820152602481019190915260448101829052606490fd5b60405163ec442f0560e01b81525f6004820152602490fd5b604051634b637e8f60e11b81525f6004820152602490fd5b6005546001600160a01b0316330361091657565b60405163118cdaa760e01b8152336004820152602490fd5b6001600160a01b03169081156108d2576002549080820180921161098e5760207fddf252ad1be2c89b69c2b068fc378daa952ba7f163c4a11628f55a4df523b3ef915f9360025584845283825260408420818154019055604051908152a3565b634e487b7160e01b5f52601160045260245ffd5b91906001600160a01b0383169081156108ea57815f525f60205260405f205493818510610a0f57506020817fddf252ad1be2c89b69c2b068fc378daa952ba7f163c4a11628f55a4df523b3ef925f95968587528684520360408620558060025403600255604051908152a3565b60405163391434e360e21b81526001600160a01b03919091166004820152602481018590526044810191909152606490fdfea2646970667358221220309bca959ea0dac46d6140473a7f8f2bc0726c04dd554ea19a9de6bc3da723c764736f6c63430008180033",
  "linkReferences": {},
  "deployedLinkReferences": {},
  "immutableReferences": {},
  "inputSourceName": "project/contracts/MockERC20.sol",
  "buildInfoId": "solc-0_8_24-99dada67bc8473228f503328c2aefb9dc18b8f23"
}