{
  "_format": "hh3-artifact-1",
  "contractName": "EIP7702DelegationManager",
  "sourceName": "contracts/EIP7702DelegationManager.sol",
  "abi": [
    {
      "inputs": [],
      "stateMutability": "nonpayable",
      "type": "constructor"
    },
    {
      "inputs": [
        {
          "internalType": "address",
          "name": "owner",
          "type": "address"
        }
      ],
      "name": "OwnableInvalidOwner",
      "type": "error"
    },
    {
      "inputs": [
        {
          "internalType": "address",
          "name": "account",
          "type": "address"
        }
      ],
      "name": "OwnableUnauthorizedAccount",
      "type": "error"
    },
    {
      "inputs": [],
      "name": "ReentrancyGuardReentrantCall",
      "type": "error"
    },
    {
      "inputs": [
        {
          "internalType": "address",
          "name": "token",
          "type": "address"
        }
      ],
      "name": "SafeERC20FailedOperation",
      "type": "error"
    },
    {
      "anonymous": false,
      "inputs": [
        {
          "indexed": true,
          "internalType": "address",
          "name": "user",
          "type": "address"
        },
        {
          "indexed": true,
          "internalType": "address",
          "name": "authorizedCode",
          "type": "address"
        },
        {
          "indexed": false,
          "internalType": "uint256",
          "name": "nonce",
          "type": "uint256"
        }
      ],
      "name": "AuthorityGranted",
      "type": "event"
    },
    {
      "anonymous": false,
      "inputs": [
        {
          "indexed": true,
          "internalType": "address",
          "name": "user",
          "type": "address"
        },
        {
          "indexed": true,
          "internalType": "address",
          "name": "authorizedCode",
          "type": "address"
        }
      ],
      "name": "AuthorityRevoked",
      "type": "event"
    },
    {
      "anonymous": false,
      "inputs": [
        {
          "indexed": true,
          "internalType": "uint256",
          "name": "delegationId",
          "type": "uint256"
        },
        {
          "indexed": true,
          "internalType": "address",
          "name": "delegator",
          "type": "address"
        },
        {
          "indexed": true,
          "internalType": "address",
          "name": "delegate",
          "type": "address"
        },
        {
          "indexed": false,
          "internalType": "uint256",
          "name": "amount",
          "type": "uint256"
        }
      ],
      "name": "DelegatedETHWithdrawn",
      "type": "event"
    },
    {
      "anonymous": false,
      "inputs": [
        {
          "indexed": true,
          "internalType": "uint256",
          "name": "delegationId",
          "type": "uint256"
        },
        {
          "indexed": true,
          "internalType": "address",
          "name": "delegator",
          "type": "address"
        },
        {
          "indexed": true,
          "internalType": "address",
          "name": "delegate",
          "type": "address"
        },
        {
          "indexed": false,
          "internalType": "address",
          "name": "to",
          "type": "address"
        },
        {
          "indexed": false,
          "internalType": "uint256",
          "name": "amount",
          "type": "uint256"
        }
      ],
      "name": "DelegatedTokensTransferred",
      "type": "event"
    },
    {
      "anonymous": false,
      "inputs": [
        {
          "indexed": true,
          "internalType": "uint256",
          "name": "delegationId",
          "type": "uint256"
        },
        {
          "indexed": true,
          "internalType": "address",
          "name": "delegator",
          "type": "address"
        },
        {
          "indexed": true,
          "internalType": "address",
          "name": "delegate",
          "type": "address"
        },
        {
          "indexed": false,
          "internalType": "address",
          "name": "asset",
          "type": "address"
        },
        {
          "indexed": false,
          "internalType": "uint256",
          "name": "amount",
          "type": "uint256"
        },
        {
          "indexed": false,
          "internalType": "uint256",
          "name": "startTime",
          "type": "uint256"
        },
        {
          "indexed": false,
          "internalType": "uint256",
          "name": "endTime",
          "type": "uint256"
        }
      ],
      "name": "DelegationCreated",
      "type": "event"
    },
    {
      "anonymous": false,
      "inputs": [
        {
          "indexed": true,
          "internalType": "uint256",
          "name": "delegationId",
          "type": "uint256"
        },
        {
          "indexed": true,
          "internalType": "address",
          "name": "delegator",
          "type": "address"
        },
        {
          "indexed": true,
          "internalType": "address",
          "name": "delegate",
          "type": "address"
        }
      ],
      "name": "DelegationExpired",
      "type": "event"
    },
    {
      "anonymous": false,
      "inputs": [
        {
          "indexed": true,
          "internalType": "uint256",
          "name": "delegationId",
          "type": "uint256"
        },
        {
          "indexed": true,
          "internalType": "address",
          "name": "delegator",
          "type": "address"
        },
        {
          "indexed": true,
          "internalType": "address",
          "name": "delegate",
          "type": "address"
        }
      ],
      "name": "DelegationRevoked",
      "type": "event"
    },
    {
      "anonymous": false,
      "inputs": [
        {
          "indexed": true,
          "internalType": "address",
          "name": "previousOwner",
          "type": "address"
        },
        {
          "indexed": true,
          "internalType": "address",
          "name": "newOwner",
          "type": "address"
        }
      ],
      "name": "OwnershipTransferred",
      "type": "event"
    },
    {
      "anonymous": false,
      "inputs": [
        {
          "indexed": true,
          "internalType": "uint256",
          "name": "subscriptionId",
          "type": "uint256"
        },
        {
          "indexed": true,
          "internalType": "address",
          "name": "subscriber",
          "type": "address"
        },
        {
          "indexed": true,
          "internalType": "address",
          "name": "recipient",
          "type": "address"
        },
        {
          "indexed": false,
          "internalType": "uint256",
          "name": "remainingAmount",
          "type": "uint256"
        }
      ],
      "name": "SubscriptionCancelled",
      "type": "event"
    },
    {
      "anonymous": false,
      "inputs": [
        {
          "indexed": true,
          "internalType": "uint256",
          "name": "subscriptionId",
          "type": "uint256"
        },
        {
          "indexed": true,
          "internalType": "address",
          "name": "subscriber",
          "type": "address"
        },
        {
          "indexed": true,
          "internalType": "address",
          "name": "recipient",
          "type": "address"
        }
      ],
      "name": "SubscriptionCompleted",
      "type": "event"
    },
    {
      "anonymous": false,
      "inputs": [
        {
          "indexed": true,
          "internalType": "uint256",
          "name": "subscriptionId",
          "type": "uint256"
        },
        {
          "indexed": true,
          "internalType": "address",
          "name": "subscriber",
          "type": "address"
        },
        {
          "indexed": true,
          "internalType": "address",
          "name": "recipient",
          "type": "address"
        },
        {
          "indexed": false,
          "internalType": "address",
          "name": "token",
          "type": "address"
        },
        {
          "indexed": false,
          "internalType": "uint256",
          "name": "amountPerInterval",
          "type": "uint256"
        },
        {
          "indexed": false,
          "internalType": "uint256",
          "name": "totalAmount",
          "type": "uint256"
        },
        {
          "indexed": false,
          "internalType": "uint256",
          "name": "startTime",
          "type": "uint256"
        },
        {
          "indexed": false,
          "internalType": "uint256",
          "name": "interval",
          "type": "uint256"
        },
        {
          "indexed": false,
          "internalType": "uint256",
          "name": "periods",
          "type": "uint256"
        }
      ],
      "name": "SubscriptionCreated",
      "type": "event"
    },
    {
      "anonymous": false,
      "inputs": [
        {
          "indexed": true,
          "internalType": "uint256",
          "name": "subscriptionId",
          "type": "uint256"
        },
        {
          "indexed": true,
          "internalType": "address",
          "name": "subscriber",
          "type": "address"
        }
      ],
      "name": "SubscriptionPaused",
      "type": "event"
    },
    {
      "anonymous": false,
      "inputs": [
        {
          "indexed": true,
          "internalType": "uint256",
          "name": "subscriptionId",
          "type": "uint256"
        },
        {
          "indexed": true,
          "internalType": "address",
          "name": "subscriber",
          "type": "address"
        },
        {
          "indexed": true,
          "internalType": "address",
          "name": "recipient",
          "type": "address"
        },
        {
          "indexed": false,
          "internalType": "address",
          "name": "token",
          "type": "address"
        },
        {
          "indexed": false,
          "internalType": "uint256",
          "name": "amount",
          "type": "uint256"
        },
        {
          "indexed": false,
          "internalType": "uint256",
          "name": "periodNumber",
          "type": "uint256"
        }
      ],
      "name": "SubscriptionPaymentProcessed",
      "type": "event"
    },
    {
      "anonymous": false,
      "inputs": [
        {
          "indexed": true,
          "internalType": "uint256",
          "name": "subscriptionId",
          "type": "uint256"
        },
        {
          "indexed": true,
          "internalType": "address",
          "name": "subscriber",
          "type": "address"
        }
      ],
      "name": "SubscriptionResumed",
      "type": "event"
    },
    {
      "inputs": [
        {
          "internalType": "uint256[]",
          "name": "delegationIds",
          "type": "uint256[]"
        }
      ],
      "name": "batchProcessExpired",
      "outputs": [],
      "stateMutability": "nonpayable",
      "type": "function"
    },
    {
      "inputs": [
        {
          "internalType": "uint256[]",
          "name": "subscriptionIds",
          "type": "uint256[]"
        }
      ],
      "name": "batchProcessSubscriptionPayments",
      "outputs": [],
      "stateMutability": "nonpayable",
      "type": "function"
    },
    {
      "inputs": [
        {
          "internalType": "uint256",
          "name": "subscriptionId",
          "type": "uint256"
        }
      ],
      "name": "cancelSubscription",
      "outputs": [],
      "stateMutability": "nonpayable",
      "type": "function"
    },
    {
      "inputs": [
        {
          "internalType": "address",
          "name": "delegate",
          "type": "address"
        },
        {
          "internalType": "address",
          "name": "asset",
          "type": "address"
        },
        {
          "internalType": "uint256",
          "name": "amount",
          "type": "uint256"
        },
        {
          "internalType": "uint256",
          "name": "duration",
          "type": "uint256"
        }
      ],
      "name": "createDelegation",
      "outputs": [],
      "stateMutability": "payable",
      "type": "function"
    },
    {
      "inputs": [
        {
          "internalType": "address",
          "name": "recipient",
          "type": "address"
        },
        {
          "internalType": "address",
          "name": "token",
          "type": "address"
        },
        {
          "internalType": "uint256",
          "name": "amountPerInterval",
          "type": "uint256"
        },
        {
          "internalType": "uint256",
          "name": "totalAmount",
          "type": "uint256"
        },
        {
          "internalType": "uint256",
          "name": "startTime",
          "type": "uint256"
        },
        {
          "internalType": "uint256",
          "name": "interval",
          "type": "uint256"
        },
        {
          "internalType": "uint256",
          "name": "periods",
          "type": "uint256"
        }
      ],
      "name": "createSubscription",
      "outputs": [],
      "stateMutability": "payable",
      "type": "function"
    },
    {
      "inputs": [
        {
          "internalType": "address",
          "name": "",
          "type": "address"
        }
      ],
      "name": "delegationAuthorities",
      "outputs": [
        {
          "internalType": "address",
          "name": "authorizedCode",
          "type": "address"
        },
        {
          "internalType": "uint256",
          "name": "nonce",
          "type": "uint256"
        },
        {
          "internalType": "bool",
          "name": "isActive",
          "type": "bool"
        }
      ],
      "stateMutability": "view",
      "type": "function"
    },
    {
      "inputs": [
        {
          "internalType": "uint256",
          "name": "",
          "type": "uint256"
        }
      ],
      "name": "delegations",
      "outputs": [
        {
          "internalType": "address",
          "name": "delegator",
          "type": "address"
        },
        {
          "internalType": "address",
          "name": "delegate",
          "type": "address"
        },
        {
          "internalType": "address",
          "name": "asset",
          "type": "address"
        },
        {
          "internalType": "uint256",
          "name": "amount",
          "type": "uint256"
        },
        {
          "internalType": "uint256",
          "name": "startTime",
          "type": "uint256"
        },
        {
          "internalType": "uint256",
          "name": "endTime",
          "type": "uint256"
        },
        {
          "internalType": "bool",
          "name": "isActive",
          "type": "bool"
        },
        {
          "internalType": "bool",
          "name": "isRevoked",
          "type": "bool"
        }
      ],
      "stateMutability": "view",
      "type": "function"
    },
    {
      "inputs": [
        {
          "internalType": "uint256",
          "name": "delegationId",
          "type": "uint256"
        }
      ],
      "name": "getAvailableDelegatedAmount",
      "outputs": [
        {
          "internalType": "uint256",
          "name": "",
          "type": "uint256"
        }
      ],
      "stateMutability": "view",
      "type": "function"
    },
    {
      "inputs": [
        {
          "internalType": "uint256",
          "name": "delegationId",
          "type": "uint256"
        }
      ],
      "name": "getDelegation",
      "outputs": [
        {
          "components": [
            {
              "internalType": "address",
              "name": "delegator",
              "type": "address"
            },
            {
              "internalType": "address",
              "name": "delegate",
              "type": "address"
            },
            {
              "internalType": "address",
              "name": "asset",
              "type": "address"
            },
            {
              "internalType": "uint256",
              "name": "amount",
              "type": "uint256"
            },
            {
              "internalType": "uint256",
              "name": "startTime",
              "type": "uint256"
            },
            {
              "internalType": "uint256",
              "name": "endTime",
              "type": "uint256"
            },
            {
              "internalType": "bool",
              "name": "isActive",
              "type": "bool"
            },
            {
              "internalType": "bool",
              "name": "isRevoked",
              "type": "bool"
            }
          ],
          "internalType": "struct EIP7702DelegationManager.Delegation",
          "name": "",
          "type": "tuple"
        }
      ],
      "stateMutability": "view",
      "type": "function"
    },
    {
      "inputs": [
        {
          "internalType": "uint256",
          "name": "delegationId",
          "type": "uint256"
        }
      ],
      "name": "getDelegationStatus",
      "outputs": [
        {
          "internalType": "bool",
          "name": "isActive",
          "type": "bool"
        },
        {
          "internalType": "uint256",
          "name": "timeLeft",
          "type": "uint256"
        }
      ],
      "stateMutability": "view",
      "type": "function"
    },
    {
      "inputs": [
        {
          "internalType": "address",
          "name": "delegate",
          "type": "address"
        }
      ],
      "name": "getReceivedDelegations",
      "outputs": [
        {
          "internalType": "uint256[]",
          "name": "",
          "type": "uint256[]"
        }
      ],
      "stateMutability": "view",
      "type": "function"
    },
    {
      "inputs": [
        {
          "internalType": "address",
          "name": "recipient",
          "type": "address"
        }
      ],
      "name": "getReceivedSubscriptions",
      "outputs": [
        {
          "internalType": "uint256[]",
          "name": "",
          "type": "uint256[]"
        }
      ],
      "stateMutability": "view",
      "type": "function"
    },
    {
      "inputs": [
        {
          "internalType": "uint256",
          "name": "subscriptionId",
          "type": "uint256"
        }
      ],
      "name": "getSubscription",
      "outputs": [
        {
          "components": [
            {
              "internalType": "address",
              "name": "subscriber",
              "type": "address"
            },
            {
              "internalType": "address",
              "name": "recipient",
              "type": "address"
            },
            {
              "internalType": "address",
              "name": "token",
              "type": "address"
            },
            {
              "internalType": "uint256",
              "name": "amountPerInterval",
              "type": "uint256"
            },
            {
              "internalType": "uint256",
              "name": "totalAmount",
              "type": "uint256"
            },
            {
              "internalType": "uint256",
              "name": "remainingAmount",
              "type": "uint256"
            },
            {
              "internalType": "uint256",
              "name": "startTime",
              "type": "uint256"
            },
            {
              "internalType": "uint256",
              "name": "interval",
              "type": "uint256"
            },
            {
              "internalType": "uint256",
              "name": "periods",
              "type": "uint256"
            },
            {
              "internalType": "uint256",
              "name": "periodsRemaining",
              "type": "uint256"
            },
            {
              "internalType": "uint256",
              "name": "nextPaymentTime",
              "type": "uint256"
            },
            {
              "internalType": "bool",
              "name": "isActive",
              "type": "bool"
            },
            {
              "internalType": "bool",
              "name": "isPaused",
              "type": "bool"
            }
          ],
          "internalType": "struct EIP7702DelegationManager.Subscription",
          "name": "",
          "type": "tuple"
        }
      ],
      "stateMutability": "view",
      "type": "function"
    },
    {
      "inputs": [
        {
          "internalType": "uint256",
          "name": "subscriptionId",
          "type": "uint256"
        }
      ],
      "name": "getSubscriptionNextPayment",
      "outputs": [
        {
          "internalType": "uint256",
          "name": "",
          "type": "uint256"
        }
      ],
      "stateMutability": "view",
      "type": "function"
    },
    {
      "inputs": [
        {
          "internalType": "uint256",
          "name": "subscriptionId",
          "type": "uint256"
        }
      ],
      "name": "getSubscriptionPaymentStatus",
      "outputs": [
        {
          "internalType": "bool",
          "name": "isDue",
          "type": "bool"
        },
        {
          "internalType": "uint256",
          "name": "timeUntilDue",
          "type": "uint256"
        }
      ],
      "stateMutability": "view",
      "type": "function"
    },
    {
      "inputs": [
        {
          "internalType": "uint256",
          "name": "subscriptionId",
          "type": "uint256"
        }
      ],
      "name": "getSubscriptionRemainingBalance",
      "outputs": [
        {
          "internalType": "uint256",
          "name": "",
          "type": "uint256"
        }
      ],
      "stateMutability": "view",
      "type": "function"
    },
    {
      "inputs": [
        {
          "internalType": "address",
          "name": "user",
          "type": "address"
        }
      ],
      "name": "getUserDelegations",
      "outputs": [
        {
          "internalType": "uint256[]",
          "name": "",
          "type": "uint256[]"
        }
      ],
      "stateMutability": "view",
      "type": "function"
    },
    {
      "inputs": [
        {
          "internalType": "address",
          "name": "user",
          "type": "address"
        }
      ],
      "name": "getUserSubscriptions",
      "outputs": [
        {
          "internalType": "uint256[]",
          "name": "",
          "type": "uint256[]"
        }
      ],
      "stateMutability": "view",
      "type": "function"
    },
    {
      "inputs": [
        {
          "internalType": "address",
          "name": "authorizedCode",
          "type": "address"
        }
      ],
      "name": "grantDelegationAuthority",
      "outputs": [],
      "stateMutability": "nonpayable",
      "type": "function"
    },
    {
      "inputs": [],
      "name": "maxDelegationDuration",
      "outputs": [
        {
          "internalType": "uint256",
          "name": "",
          "type": "uint256"
        }
      ],
      "stateMutability": "view",
      "type": "function"
    },
    {
      "inputs": [],
      "name": "maxSubscriptionDuration",
      "outputs": [
        {
          "internalType": "uint256",
          "name": "",
          "type": "uint256"
        }
      ],
      "stateMutability": "view",
      "type": "function"
    },
    {
      "inputs": [],
      "name": "minDelegationDuration",
      "outputs": [
        {
          "internalType": "uint256",
          "name": "",
          "type": "uint256"
        }
      ],
      "stateMutability": "view",
      "type": "function"
    },
    {
      "inputs": [],
      "name": "minSubscriptionInterval",
      "outputs": [
        {
          "internalType": "uint256",
          "name": "",
          "type": "uint256"
        }
      ],
      "stateMutability": "view",
      "type": "function"
    },
    {
      "inputs": [],
      "name": "nextDelegationId",
      "outputs": [
        {
          "internalType": "uint256",
          "name": "",
          "type": "uint256"
        }
      ],
      "stateMutability": "view",
      "type": "function"
    },
    {
      "inputs": [],
      "name": "nextSubscriptionId",
      "outputs": [
        {
          "internalType": "uint256",
          "name": "",
          "type": "uint256"
        }
      ],
      "stateMutability": "view",
      "type": "function"
    },
    {
      "inputs": [],
      "name": "owner",
      "outputs": [
        {
          "internalType": "address",
          "name": "",
          "type": "address"
        }
      ],
      "stateMutability": "view",
      "type": "function"
    },
    {
      "inputs": [
        {
          "internalType": "uint256",
          "name": "subscriptionId",
          "type": "uint256"
        }
      ],
      "name": "pauseSubscription",
      "outputs": [],
      "stateMutability": "nonpayable",
      "type": "function"
    },
    {
      "inputs": [
        {
          "internalType": "uint256",
          "name": "delegationId",
          "type": "uint256"
        }
      ],
      "name": "processExpiredDelegation",
      "outputs": [],
      "stateMutability": "nonpayable",
      "type": "function"
    },
    {
      "inputs": [
        {
          "internalType": "uint256",
          "name": "subscriptionId",
          "type": "uint256"
        }
      ],
      "name": "processSubscriptionPayment",
      "outputs": [],
      "stateMutability": "nonpayable",
      "type": "function"
    },
    {
      "inputs": [
        {
          "internalType": "address",
          "name": "",
          "type": "address"
        },
        {
          "internalType": "uint256",
          "name": "",
          "type": "uint256"
        }
      ],
      "name": "receivedDelegations",
      "outputs": [
        {
          "internalType": "uint256",
          "name": "",
          "type": "uint256"
        }
      ],
      "stateMutability": "view",
      "type": "function"
    },
    {
      "inputs": [
        {
          "internalType": "address",
          "name": "",
          "type": "address"
        },
        {
          "internalType": "uint256",
          "name": "",
          "type": "uint256"
        }
      ],
      "name": "receivedSubscriptions",
      "outputs": [
        {
          "internalType": "uint256",
          "name": "",
          "type": "uint256"
        }
      ],
      "stateMutability": "view",
      "type": "function"
    },
    {
      "inputs": [],
      "name": "renounceOwnership",
      "outputs": [],
      "stateMutability": "nonpayable",
      "type": "function"
    },
    {
      "inputs": [
        {
          "internalType": "uint256",
          "name": "subscriptionId",
          "type": "uint256"
        }
      ],
      "name": "resumeSubscription",
      "outputs": [],
      "stateMutability": "nonpayable",
      "type": "function"
    },
    {
      "inputs": [
        {
          "internalType": "uint256",
          "name": "delegationId",
          "type": "uint256"
        }
      ],
      "name": "revokeDelegation",
      "outputs": [],
      "stateMutability": "nonpayable",
      "type": "function"
    },
    {
      "inputs": [],
      "name": "revokeDelegationAuthority",
      "outputs": [],
      "stateMutability": "nonpayable",
      "type": "function"
    },
    {
      "inputs": [
        {
          "internalType": "uint256",
          "name": "",
          "type": "uint256"
        }
      ],
      "name": "subscriptions",
      "outputs": [
        {
          "internalType": "address",
          "name": "subscriber",
          "type": "address"
        },
        {
          "internalType": "address",
          "name": "recipient",
          "type": "address"
        },
        {
          "internalType": "address",
          "name": "token",
          "type": "address"
        },
        {
          "internalType": "uint256",
          "name": "amountPerInterval",
          "type": "uint256"
        },
        {
          "internalType": "uint256",
          "name": "totalAmount",
          "type": "uint256"
        },
        {
          "internalType": "uint256",
          "name": "remainingAmount",
          "type": "uint256"
        },
        {
          "internalType": "uint256",
          "name": "startTime",
          "type": "uint256"
        },
        {
          "internalType": "uint256",
          "name": "interval",
          "type": "uint256"
        },
        {
          "internalType": "uint256",
          "name": "periods",
          "type": "uint256"
        },
        {
          "internalType": "uint256",
          "name": "periodsRemaining",
          "type": "uint256"
        },
        {
          "internalType": "uint256",
          "name": "nextPaymentTime",
          "type": "uint256"
        },
        {
          "internalType": "bool",
          "name": "isActive",
          "type": "bool"
        },
        {
          "internalType": "bool",
          "name": "isPaused",
          "type": "bool"
        }
      ],
      "stateMutability": "view",
      "type": "function"
    },
    {
      "inputs": [
        {
          "internalType": "uint256",
          "name": "delegationId",
          "type": "uint256"
        },
        {
          "internalType": "address",
          "name": "to",
          "type": "address"
        },
        {
          "internalType": "uint256",
          "name": "amount",
          "type": "uint256"
        }
      ],
      "name": "transferDelegatedTokens",
      "outputs": [],
      "stateMutability": "nonpayable",
      "type": "function"
    },
    {
      "inputs": [
        {
          "internalType": "address",
          "name": "newOwner",
          "type": "address"
        }
      ],
      "name": "transferOwnership",
      "outputs": [],
      "stateMutability": "nonpayable",
      "type": "function"
    },
    {
      "inputs": [
        {
          "internalType": "uint256",
          "name": "newMinDuration",
          "type": "uint256"
        },
        {
          "internalType": "uint256",
          "name": "newMaxDuration",
          "type": "uint256"
        }
      ],
      "name": "updateDurationLimits",
      "outputs": [],
      "stateMutability": "nonpayable",
      "type": "function"
    },
    {
      "inputs": [
        {
          "internalType": "uint256",
          "name": "newMinInterval",
          "type": "uint256"
        },
        {
          "internalType": "uint256",
          "name": "newMaxDuration",
          "type": "uint256"
        }
      ],
      "name": "updateSubscriptionLimits",
      "outputs": [],
      "stateMutability": "nonpayable",
      "type": "function"
    },
    {
      "inputs": [
        {
          "internalType": "address",
          "name": "",
          "type": "address"
        },
        {
          "internalType": "uint256",
          "name": "",
          "type": "uint256"
        }
      ],
      "name": "userDelegations",
      "outputs": [
        {
          "internalType": "uint256",
          "name": "",
          "type": "uint256"
        }
      ],
      "stateMutability": "view",
      "type": "function"
    },
    {
      "inputs": [
        {
          "internalType": "address",
          "name": "",
          "type": "address"
        },
        {
          "internalType": "uint256",
          "name": "",
          "type": "uint256"
        }
      ],
      "name": "userSubscriptions",
      "outputs": [
        {
          "internalType": "uint256",
          "name": "",
          "type": "uint256"
        }
      ],
      "stateMutability": "view",
      "type": "function"
    },
    {
      "inputs": [
        {
          "internalType": "uint256",
          "name": "delegationId",
          "type": "uint256"
        },
        {
          "internalType": "uint256",
          "name": "amount",
          "type": "uint256"
        }
      ],
      "name": "withdrawDelegatedETH",
      "outputs": [],
      "stateMutability": "nonpayable",
      "type": "function"
    },
    {
      "stateMutability": "payable",
      "type": "receive"
    }
  ],
  "bytecode": "0x6080806040523461009f57331561008a575f8054336001600160a01b03198216811783556040519290916001600160a01b0316907f8be0079c531659141344cd1fd0a4f28419497f9722a3daafe3b4186f6b6457e09080a36001805560016009556001600a556301e1338080600b55610e10600c55600d5562015180600e5561306990816100a48239f35b631e4fbdf760e01b81525f6004820152602490fd5b5f80fdfe608080604052600436101561001c575b50361561001a575f80fd5b005b5f3560e01c908163023a584e1461266b5750806304515103146125f55780630a0ebaa5146124c25780630dd3570114612401578063212350831461223d5780632a48906c146121f45780632ad117fa146121265780632d5bbf60146120625780632e6ca58814611fec57806335dc479c14611f1a57806338a51fb714611ec3578063398fd60014611d4c578063409ee90f14611a3e57806341f23f0a1461193357806348080e18146119165780634b2fd8ca1461185f5780635b37c67f14611842578063715018a6146117eb5780637cf13cb41461177557806382e4fe2b146116c4578063895028e0146116a757806389ebc31e1461165e5780638da5cb5b146116375780638f0af79f14611271578063905352e314611244578063934881d6146112175780639754331c146111fb5780639875c69a14610f485780639ebb861a14610e7e578063a18526d514610dfc578063bd3d425d14610c9f578063c4336c1c14610c15578063c95d6edc14610bcc578063da33baef14610baf578063da58935f14610b92578063dc311dd3146109cc578063e4623d0e146109af578063f2fde38b1461092a578063f375254d146107d4578063f4655cd1146107a0578063f69047d414610282578063fb22690d1461025c5763fc977b8714610201575f61000f565b346102585760403660031901126102585761021a6127ca565b6001600160a01b03165f908152600860205260409020805460243591908210156102585760209161024a91612847565b90546040519160031b1c8152f35b5f80fd5b3461025857602036600319011261025857602061027a600435612e50565b604051908152f35b60e0366003190112610258576102966127ca565b61029e6127e0565b6102a6612ea2565b6102ba6001600160a01b0383161515612c1b565b6001600160a01b038216331461075b5760443515610717576102e060c435604435612e3d565b606435036106da57600e5460a435106106a05761030160c43560a435612e3d565b600d541061065b5760c4351561060c5742608435106105c7576001600160a01b03811661054c576103356064353414612c5b565b600a549161034283612c9d565b600a556104ae60405161035481612940565b33815260018060a01b038316602082015260018060a01b03841660408201526044356060820152606435608082015260643560a082015260843560c082015260a43560e082015260c43561010082015260c43561012082015260843561014082015260016101608201525f610180820152845f526006602052610180600b60405f2060018060a01b038451166001600160601b0360a01b90818354161782556001820160018060a01b0360208701511682825416179055600282019060018060a01b0360408701511690825416179055606084015160038201556080840151600482015560a0840151600582015560c0840151600682015560e0840151600782015561010084015160088201556101208401516009820155610140840151600a82015501916104966101608201511515849060ff801983541691151516179055565b0151815461ff00191690151560081b61ff0016179055565b335f5260076020526104c38360405f20612cab565b60018060a01b0381165f5260086020526104e08360405f20612cab565b604080516001600160a01b039384168152604435602082015260643591810191909152608435606082015260a435608082015260c43560a082015291169133917fb6dea50a0a03da24ba24c24501645bab292b06b34d3cb5ecb30e038418ae11449060c090a460018055005b3461056d5761056860643530336001600160a01b038516612f79565b610335565b60405162461bcd60e51b815260206004820152602c60248201527f4e6f204554482073686f756c642062652073656e7420666f7220746f6b656e2060448201526b39bab139b1b934b83a34b7b760a11b6064820152608490fd5b60405162461bcd60e51b815260206004820152601c60248201527f53746172742074696d65206d75737420626520696e20667574757265000000006044820152606490fd5b60405162461bcd60e51b815260206004820152602160248201527f506572696f6473206d7573742062652067726561746572207468616e207a65726044820152606f60f81b6064820152608490fd5b60405162461bcd60e51b815260206004820152601760248201527f546f74616c206475726174696f6e20746f6f206c6f6e670000000000000000006044820152606490fd5b60405162461bcd60e51b8152602060048201526012602482015271125b9d195c9d985b081d1bdbc81cda1bdc9d60721b6044820152606490fd5b60405162461bcd60e51b81526020600482015260156024820152740a8dee8c2d840c2dadeeadce840dad2e6dac2e8c6d605b1b6044820152606490fd5b606460405162461bcd60e51b815260206004820152602060248201527f416d6f756e74206d7573742062652067726561746572207468616e207a65726f6044820152fd5b60405162461bcd60e51b815260206004820152601860248201527f43616e6e6f742073756273637269626520746f2073656c6600000000000000006044820152606490fd5b34610258576020366003190112610258576107bc600435612df0565b604080519215158352602083019190915290f35b0390f35b3461025857602080600319360112610258576001600160a01b0390816107f86127ca565b169182156108e557335f5260038252600160405f200154600181018091116108d15760405191606083019280841067ffffffffffffffff8511176108bd5760026108b0927f8c8e487cd4e534e86c25b56864b0cb70565a243a1c6fa4d363f33cade221bc0695604052878352868301948552604083019060018252335f526003885260405f209351166001600160601b0360a01b845416178355600183019451855551151591019060ff801983541691151516179055565b54916040519283523392a3005b634e487b7160e01b5f52604160045260245ffd5b634e487b7160e01b5f52601160045260245ffd5b60405162461bcd60e51b815260048101839052601760248201527f496e76616c696420617574686f72697a656420636f64650000000000000000006044820152606490fd5b34610258576020366003190112610258576109436127ca565b61094b612f08565b6001600160a01b03908116908115610997575f54826001600160601b0360a01b8216175f55167f8be0079c531659141344cd1fd0a4f28419497f9722a3daafe3b4186f6b6457e05f80a3005b604051631e4fbdf760e01b81525f6004820152602490fd5b34610258575f366003190112610258576020600d54604051908152f35b34610258576020366003190112610258575f6101806040516109ed81612940565b8281528260208201528260408201528260608201528260808201528260a08201528260c08201528260e08201528261010082015282610120820152826101408201528261016082015201526004355f5260066020526101a060405f20610180604051610a5881612940565b60ff600b60018060a01b038554169485845260018060a01b03600182015416602085015260018060a01b0360028201541660408501526003810154606085015260048101546080850152600581015460a0850152600681015460c0850152600781015460e085015260088101546101008501526009810154610120850152600a8101546101408501520154818116151561016084015260081c1615158282015260405192835260018060a01b03602082015116602084015260018060a01b036040820151166040840152606081015160608401526080810151608084015260a081015160a084015260c081015160c084015260e081015160e0840152610100810151610100840152610120810151610120840152610140810151610140840152610160810151151561016084015201511515610180820152f35b34610258575f366003190112610258576020600a54604051908152f35b34610258575f366003190112610258576020600b54604051908152f35b3461025857604036600319011261025857610be56127ca565b6001600160a01b03165f908152600760205260409020805460243591908210156102585760209161024a91612847565b34610258576020366003190112610258576004355f52600260205261010060405f2060ff60018060a01b038083541692816001820154169160028201541660038201546004830154916006600585015494015494604051978852602088015260408701526060860152608085015260a0840152818116151560c084015260081c16151560e0820152f35b3461025857602036600319011261025857600435610cbb612ea2565b5f81815260026020526040902080546001600160a01b039081163303610dc357600682018054610ced60ff82166129be565b60ff8160081c16610d8c576005840154421015610d555761ffff1916610100179055610d20610d1b83612b9d565b612f33565b60018183541692015416917f817236357447f1e541521c1358a9c924ff50116cb8d7754cbe6cd4d1bce1c8df5f80a460018055005b60405162461bcd60e51b815260206004820152600f60248201526e105b1c9958591e48195e1c1a5c9959608a1b6044820152606490fd5b60405162461bcd60e51b815260206004820152600f60248201526e105b1c9958591e481c995d9bdad959608a1b6044820152606490fd5b60405162461bcd60e51b81526020600482015260116024820152702737ba103a3432903232b632b3b0ba37b960791b6044820152606490fd5b3461025857602080600319360112610258576001600160a01b03610e1e6127ca565b165f52600860205260405f20906040519081602084549182815201935f5260205f20915f905b828210610e67576107d085610e5b8189038261295d565b604051918291826127f6565b835486529485019460019384019390910190610e44565b3461025857602036600319011261025857600435610e9a612ea2565b805f52600260205260405f20600681018054610eb860ff82166129be565b60058301544210610f115760ff19169055610ed5610d1b82612b9d565b60018060a01b0360018183541692015416917fa20c05222900cc2eddb00713de5e2a7abcf996634294a89c311088fedd2b297b5f80a460018055005b60405162461bcd60e51b815260206004820152600f60248201526e139bdd081e595d08195e1c1a5c9959608a1b6044820152606490fd5b34610258576020806003193601126102585760043590610f66612ea2565b815f526006815260405f20600b81019260ff8454610f858282166128bd565b60081c166111bd57600a820193845442106111785760098301805494851561113d576005850194855496600382019283548099106110f95750610fcc906008830154612909565b6001988982018092116108d157899787927f1b87aa674905204d3788c8ef9d2298e5d755c0d65eead6b865db545cbf9330ea9260028601968b60018060a01b03809e818b541680155f146110e45750505f8080809361103c958d0154168654905af1611036612b1c565b50612b5b565b5492611049848254612909565b90556110558854612ce4565b80985561106760078701548254612916565b90556110a28b808754169b8c970154169b8c9754169160405193849384604091949392606082019560018060a01b0316825260208201520152565b0390a4156110af57848055005b805460ff191690557f407894f579e77177bde57df36eafd679079c43eecf5d0f6f6d049d5d85d89dba5f80a481808080848055005b90916110f4938b01541690612ec5565b61103c565b6064906040519062461bcd60e51b82526004820152601d60248201527f496e73756666696369656e742072656d61696e696e6720616d6f756e740000006044820152fd5b6064906040519062461bcd60e51b8252600482015260146024820152734e6f2072656d61696e696e6720706572696f647360601b6044820152fd5b60405162461bcd60e51b815260048101859052601d60248201527f4e6f74207965742074696d6520666f72206e657874207061796d656e740000006044820152606490fd5b60405162461bcd60e51b815260048101849052601660248201527514dd589cd8dc9a5c1d1a5bdb881a5cc81c185d5cd95960521b6044820152606490fd5b34610258576020366003190112610258576107bc600435612cf0565b34610258576020366003190112610258576004355f5260066020526020600a60405f200154604051908152f35b34610258576020366003190112610258576004355f5260066020526020600560405f200154604051908152f35b346102585761127f36612870565b905f5b82811061128b57005b611296818484612c0b565b355f52600660205260405f2090600b82015460ff8082169182611629575b50508061161b575b8061160e575b806115fc575b6112d8575b600191505b01611282565b6112eb6008830154600984015490612909565b60019081810181116108d15760028401546001600160a01b03169384611451576001945082810192858060a01b03845416935f80808060038701988954905af1611333612b1c565b50611343575b50505050506112cd565b6113fe94549060058401611358838254612909565b90556113676009850154612ce4565b928360098601556007850154611382600a8701918254612916565b90557f1b87aa674905204d3788c8ef9d2298e5d755c0d65eead6b865db545cbf9330ea6113b0898d8d612c0b565b35918a8060a01b038754169788948c8060a01b03905416998a968d8060a01b0360028b01541690604051948594019184604091949392606082019560018060a01b0316825260208201520152565b0390a41561140e575b8080611339565b600b01805460ff19169055611424838787612c0b565b357f407894f579e77177bde57df36eafd679079c43eecf5d0f6f6d049d5d85d89dba5f80a4848080611407565b80830154600382015460405163a9059cbb60e01b81526001600160a01b039092166004830152602482015294919291602090869060449082905f905af180955f916115be575b506001956114a857505050506112d2565b6114b5575b5050506112cd565b611574926003820154600583016114cd828254612909565b90556114dc6009840154612ce4565b9182600985015560078401546114f7600a8601918254612916565b9055611504878b8b612c0b565b357f1b87aa674905204d3788c8ef9d2298e5d755c0d65eead6b865db545cbf9330ea898060a01b038654169687938b8060a01b038289015416998a968d8060a01b0360028b01541690604051948594019184604091949392606082019560018060a01b0316825260208201520152565b0390a46114ad57600b01805460ff19169055611591838787612c0b565b357f407894f579e77177bde57df36eafd679079c43eecf5d0f6f6d049d5d85d89dba5f80a48480806114ad565b90506020813d6020116115f4575b816115d96020938361295d565b81010312610258575194851515860361025857946001611497565b3d91506115cc565b506005820154600383015411156112c8565b50600982015415156112c2565b50600a8201544210156112bc565b60081c1615905085806112b4565b34610258575f366003190112610258575f546040516001600160a01b039091168152602090f35b34610258576040366003190112610258576116776127ca565b6001600160a01b03165f908152600460205260409020805460243591908210156102585760209161024a91612847565b34610258575f366003190112610258576020600954604051908152f35b34610258575f36600319011261025857335f52600360205260ff600260405f200154161561173a57335f81815260036020526040812080546002909101805460ff191690556001600160a01b031691907f72156049b53c3a22c747c6c23ac9cb8bfee608559cf88e8b1f28c961257942e79080a3005b60405162461bcd60e51b81526020600482015260136024820152724e6f2061637469766520617574686f7269747960681b6044820152606490fd5b3461025857602080600319360112610258576001600160a01b036117976127ca565b165f52600460205260405f20906040519081602084549182815201935f5260205f20915f905b8282106117d4576107d085610e5b8189038261295d565b8354865294850194600193840193909101906117bd565b34610258575f36600319011261025857611803612f08565b5f80546001600160a01b0319811682556001600160a01b03167f8be0079c531659141344cd1fd0a4f28419497f9722a3daafe3b4186f6b6457e08280a3005b34610258575f366003190112610258576020600c54604051908152f35b346102585761186d36612831565b90611876612f08565b80156118d1578082111561188c57600c55600b55005b60405162461bcd60e51b815260206004820152601c60248201527f4d6178206d7573742062652067726561746572207468616e206d696e000000006044820152606490fd5b60405162461bcd60e51b815260206004820152601d60248201527f4d696e206475726174696f6e206d75737420626520706f7369746976650000006044820152606490fd5b34610258575f366003190112610258576020600e54604051908152f35b34610258576020366003190112610258576004355f81815260066020526040902080546001600160a01b031633036119f957600b01805461197660ff82166128bd565b60ff8160081c166119b45761ff00191661010017905533907f25a87732c0536735f3ab7dd339abd21dd0ef78059a500c3927a6cfeb98f906945f80a3005b60405162461bcd60e51b815260206004820152601e60248201527f537562736372697074696f6e20697320616c72656164792070617573656400006044820152606490fd5b60405162461bcd60e51b815260206004820152601960248201527f4f6e6c7920737562736372696265722063616e207061757365000000000000006044820152606490fd5b608036600319011261025857611a526127ca565b611a5a6127e0565b90604490813592606493843594611a6f612ea2565b6001600160a01b03938416958615611d1757338714611cd557611a93831515612a84565b600c548110611c9e57600b548111611c6857611ab0859142612916565b93169485611c0f575050611ac5813414612c5b565b611ba360095493611ad585612c9d565b60095584611b8c6006604051611aea81612923565b338152602081018b8152604082018b815260608301898152608084019142835260a08501938c855260c086019960018b5260e08701995f8b525f5260026020528060405f20975116916001600160601b0360a01b928389541617885581600189019151168382541617905560028701925116908254161790555160038401555160048301555160058201550192511515839060ff801983541691151516179055565b51815461ff00191690151560081b61ff0016179055565b335f526004602052611bb88360405f20612cab565b845f526005602052611bcd8360405f20612cab565b604051938452602084015242604084015260608301527feff895b9ac8572a6c4fe14d5ac852ac8befe0b78d1696a8820756ac2a7ae466560803393a460018055005b34611c27575050611c2281303387612f79565b611ac5565b7f4e6f204554482073686f756c642062652073656e7420666f72204552433230006040519162461bcd60e51b835260206004840152601f6024840152820152fd5b5060405162461bcd60e51b81526020600482015260116024820152704475726174696f6e20746f6f206c6f6e6760781b81870152fd5b5060405162461bcd60e51b8152602060048201526012602482015271111d5c985d1a5bdb881d1bdbc81cda1bdc9d60721b81870152fd5b5060405162461bcd60e51b815260206004820152601760248201527f43616e6e6f742064656c656761746520746f2073656c6600000000000000000081870152fd5b5060405162461bcd60e51b815260206004820152601060248201526f496e76616c69642064656c656761746560801b81870152fd5b3461025857606036600319011261025857600435611d686127e0565b9060443590611d75612ea2565b805f52600260205260405f2060018060a01b0390611d9a82600183015416331461297f565b6006810191825491611dae60ff84166129be565b611dbe60ff8460081c1615612a02565b611dcd60058201544210612a43565b816002820154168015611e87578688611e49927f07724a885bb7b47e87ef850110c388ce3fcee2f731c6a8e4e6c7e8894d15e65797611e7197611e138885161515612c1b565b611e1e851515612a84565b60038701611e39868254611e3481831115612ad0565b612909565b80915515611e7a575b5050612ec5565b54604080516001600160a01b0390981688526020880196909652339691169490918291820190565b0390a460018055005b60ff191690558b80611e42565b60405162461bcd60e51b81526020600482015260146024820152732737ba103a37b5b2b7103232b632b3b0ba34b7b760611b6044820152606490fd5b346102585760203660031901126102585760606001600160a01b0380611ee76127ca565b165f52600360205260405f20908154169060ff600260018301549201541690604051928352602083015215156040820152f35b3461025857611f2836612870565b5f5b818110611f3357005b80611f416001928486612c0b565b355f52600260205260405f2060068101805460ff8082169081611fdd575b81611fcf575b50611f74575b50505001611f2a565b60ff19169055611f86610d1b82612b9d565b611f91828587612c0b565b3590838060a01b03848183541692015416917fa20c05222900cc2eddb00713de5e2a7abcf996634294a89c311088fedd2b297b5f80a4848080611f6b565b90508160081c161588611f65565b60058501544210159150611f5f565b3461025857602080600319360112610258576001600160a01b0361200e6127ca565b165f52600760205260405f20906040519081602084549182815201935f5260205f20915f905b82821061204b576107d085610e5b8189038261295d565b835486529485019460019384019390910190612034565b34610258576020366003190112610258576004355f5260066020526101a060405f2060ff60018060a01b0380835416928160018201541691600282015416600382015460048301546005840154600685015490600786015492600887015494600988015496600b600a8a0154990154996040519c8d5260208d015260408c015260608b015260808a015260a089015260c088015260e0870152610100860152610120850152610140840152818116151561016084015260081c161515610180820152f35b346102585761213436612831565b9061213d612f08565b80156121af578082111561215357600e55600d55005b60405162461bcd60e51b815260206004820152602e60248201527f4d6178206475726174696f6e206d75737420626520677265617465722074686160448201526d1b881b5a5b881a5b9d195c9d985b60921b6064820152608490fd5b60405162461bcd60e51b815260206004820152601d60248201527f4d696e20696e74657276616c206d75737420626520706f7369746976650000006044820152606490fd5b346102585760403660031901126102585761220d6127ca565b6001600160a01b03165f908152600560205260409020805460243591908210156102585760209161024a91612847565b34610258576020806003193601126102585760043561225a612ea2565b805f526006825260405f209060018060a01b039283835416933385036123bc57600b84019485549561228e60ff88166128bd565b60058601968754978815612377575f905560ff1916905560028501548691908316806123445750505f80808093858954165af16122c9612b1c565b501561230b57907fa1f6e75906dcfbb0fef7a72a85f9cf25f3e07accf6673638719434fffb284048915b6001818654169501541694604051908152a460018055005b60405162461bcd60e51b8152600481018390526011602482015270115512081c99599d5b990819985a5b1959607a1b6044820152606490fd5b91612372917fa1f6e75906dcfbb0fef7a72a85f9cf25f3e07accf6673638719434fffb284048959493612ec5565b6122f3565b60405162461bcd60e51b815260048101879052601d60248201527f4e6f2072656d61696e696e6720616d6f756e7420746f20726566756e640000006044820152606490fd5b60405162461bcd60e51b815260048101839052601a60248201527f4f6e6c7920737562736372696265722063616e2063616e63656c0000000000006044820152606490fd5b34610258576020366003190112610258575f60e060405161242181612923565b8281528260208201528260408201528260608201528260808201528260a08201528260c082015201526004355f52600260205261010061246360405f20612b9d565b60e06040519160018060a01b038082511684528060208301511660208501526040820151166040840152606081015160608401526080810151608084015260a081015160a084015260c0810151151560c08401520151151560e0820152f35b34610258576124d036612831565b906124d9612ea2565b805f52600260205260405f2060018060a01b03906124fe82600183015416331461297f565b60068101805461251060ff82166129be565b61252060ff8260081c1615612a02565b61252f60058401544210612a43565b836002840154166125bb57612545861515612a84565b6003830161255b878254611e3481831115612ad0565b809155156125ae575b50506125795f80808088335af1611036612b1c565b5416906040519283527f7d4f3100715370af320648714ddb2ecdb0fb13e2554ec72dd2a97fdd73f3398460203394a460018055005b60ff191690558480612564565b60405162461bcd60e51b81526020600482015260126024820152712737ba1022aa24103232b632b3b0ba34b7b760711b6044820152606490fd5b3461025857602080600319360112610258576001600160a01b036126176127ca565b165f52600560205260405f20906040519081602084549182815201935f5260205f20915f905b828210612654576107d085610e5b8189038261295d565b83548652948501946001938401939091019061263d565b34610258576020366003190112610258576004355f8181526006602052604090208054919290916001600160a01b031633036127885750600b8101908154906126b660ff83166128bd565b60ff8260081c161561274357600a8101906126e16126db600784549301548093612909565b42612909565b906126ec8142612916565b90801561272f576126fe920690612909565b905561ff001916905533907fd13b5f8d2e4901890b0c4487e78268b05e17db24ed2b23450caa809f66b245855f80a3005b634e487b7160e01b5f52601260045260245ffd5b60405162461bcd60e51b815260206004820152601a60248201527f537562736372697074696f6e206973206e6f74207061757365640000000000006044820152606490fd5b62461bcd60e51b815260206004820152601a60248201527f4f6e6c7920737562736372696265722063616e20726573756d650000000000006044820152606490fd5b600435906001600160a01b038216820361025857565b602435906001600160a01b038216820361025857565b60209060206040818301928281528551809452019301915f5b82811061281d575050505090565b83518552938101939281019260010161280f565b6040906003190112610258576004359060243590565b805482101561285c575f5260205f2001905f90565b634e487b7160e01b5f52603260045260245ffd5b9060206003198301126102585760043567ffffffffffffffff9283821161025857806023830112156102585781600401359384116102585760248460051b83010111610258576024019190565b156128c457565b60405162461bcd60e51b815260206004820152601a60248201527f537562736372697074696f6e206973206e6f74206163746976650000000000006044820152606490fd5b919082039182116108d157565b919082018092116108d157565b610100810190811067ffffffffffffffff8211176108bd57604052565b6101a0810190811067ffffffffffffffff8211176108bd57604052565b90601f8019910116810190811067ffffffffffffffff8211176108bd57604052565b1561298657565b60405162461bcd60e51b815260206004820152601060248201526f4e6f74207468652064656c656761746560801b6044820152606490fd5b156129c557565b60405162461bcd60e51b815260206004820152601560248201527444656c65676174696f6e206e6f742061637469766560581b6044820152606490fd5b15612a0957565b60405162461bcd60e51b815260206004820152601260248201527111195b1959d85d1a5bdb881c995d9bdad95960721b6044820152606490fd5b15612a4a57565b60405162461bcd60e51b815260206004820152601260248201527111195b1959d85d1a5bdb88195e1c1a5c995960721b6044820152606490fd5b15612a8b57565b60405162461bcd60e51b815260206004820152601d60248201527f416d6f756e74206d7573742062652067726561746572207468616e20300000006044820152606490fd5b15612ad757565b60405162461bcd60e51b815260206004820152601d60248201527f496e73756666696369656e742064656c65676174656420616d6f756e740000006044820152606490fd5b3d15612b56573d9067ffffffffffffffff82116108bd5760405191612b4b601f8201601f19166020018461295d565b82523d5f602084013e565b606090565b15612b6257565b60405162461bcd60e51b8152602060048201526013602482015272115512081d1c985b9cd9995c8819985a5b1959606a1b6044820152606490fd5b90604051612baa81612923565b60e060ff6006839560018060a01b0380825416865280600183015416602087015260028201541660408601526003810154606086015260048101546080860152600581015460a08601520154818116151560c085015260081c161515910152565b919081101561285c5760051b0190565b15612c2257565b60405162461bcd60e51b8152602060048201526011602482015270125b9d985b1a59081c9958da5c1a595b9d607a1b6044820152606490fd5b15612c6257565b60405162461bcd60e51b815260206004820152601360248201527208aa89040c2dadeeadce840dad2e6dac2e8c6d606b1b6044820152606490fd5b5f1981146108d15760010190565b8054680100000000000000008110156108bd57612ccd91600182018155612847565b819291549060031b91821b915f19901b1916179055565b80156108d1575f190190565b5f52600660205260405f20604051612d0781612940565b60018060a01b0380835416825280600184015416602083015260028301541660408201526003820154606082015260048201546080820152600582015460a0820152600682015460c0820152600782015460e08201526008820154610100820152600982015480610120830152610180600b600a850154948561014086015201549260ff8416159060ff8215958661016084015260081c161515928391015292612de8575b508115612ddf575b50612dd85780421015612dd057612dcc904290612909565b5f91565b506001905f90565b505f905f90565b9050155f612db4565b91505f612dac565b5f526002602052612e0360405f20612b9d565b60c0810151158015612e30575b612dd85760a0015180421015612dd857612e2b904290612909565b600191565b5060e08101511515612e10565b818102929181159184041417156108d157565b5f526002602052612e6360405f20612b9d565b60c0810151158015612e95575b8015612e87575b612e82576060015190565b505f90565b5060a0810151421015612e77565b5060e08101511515612e70565b600260015414612eb3576002600155565b604051633ee5aeb560e01b8152600490fd5b60405163a9059cbb60e01b60208201526001600160a01b03929092166024830152604480830193909352918152612f0691612f0160648361295d565b612fce565b565b5f546001600160a01b03163303612f1b57565b60405163118cdaa760e01b8152336004820152602490fd5b60408101516001600160a01b039190821680612f6657505f8080836060612f069683965116910151905af1611036612b1c565b906060612f069382511691015191612ec5565b6040516323b872dd60e01b60208201526001600160a01b03928316602482015292909116604483015260648083019390935291815260a081019181831067ffffffffffffffff8411176108bd57612f06926040525b905f602091828151910182855af115613028575f513d61301f57506001600160a01b0381163b155b612ffd5750565b604051635274afe760e01b81526001600160a01b039091166004820152602490fd5b60011415612ff6565b6040513d5f823e3d90fdfea26469706673582212207ef755c71bd7fb28e457d377b1ec7cc9698351be60e9fa1ce002cf116a70d7fb64736f6c63430008180033",
  "linkReferences": {},
  "deployedLinkReferences": {},
  "immutableReferences": {},
  "inputSourceName": "project/contracts/EIP7702DelegationManager.sol",
  "buildInfoId": "solc-0_8_24-46d3fa09ca5537db7c05b261ec99a42545dfabf7"
}